:100000000C9463000C948B000C948B000C945F0593
:100010000C945F050C945F050C948B000C948B0082
:100020000C948B000C948B000C948B000C948B0024
:100030000C948B000C948B000C948B000C948B0014
:100040000C9415050C948B000C94E3040C94BD04E3
:100050000C948B000C948B000C948B000C948B00F4
:100060000C948B000C948B000000000024002700EF
:100070002A0000000008000201000003040700003D
:1000800000000000000000000000230026002900FE
:1000900000000000250028002B00040404040404D0
:1000A0000404020202020202030303030303010227
:1000B00004081020408001020408102001020408F6
:1000C0001020D905850A11241FBECFEFD8E0DEBF6E
:1000D000CDBF24E0AAE6B3E001C01D92AE37B2075F
:1000E000E1F713E0A0E0B1E0E0EAFAE102C0059038
:1000F0000D92AA36B107D9F710E0C2E6D0E004C0ED
:100100002197FE010E94380BC136D107C9F70E9422
:1001100094060C94430D0C940000FC01248135815D
:100120006217730720F480819181009729F410925F
:10013000B30383EB93E00895860F971F0895CF9242
:10014000DF92EF92FF920F931F93CF93DF936C0197
:100150007A018B01C0E0D0E0CE15DF0581F0D80137
:100160006D918D01D601ED91FC910190F081E02D12
:10017000C6010995892B11F02196EECF7E01C701AA
:10018000DF91CF911F910F91FF90EF90DF90CF9073
:100190000895FC01538D448D252F30E0842F90E08D
:1001A000821B930B541710F0CF9608950197089572
:1001B000FC01918D828D981761F0828DDF01A80F6F
:1001C000B11D5D968C91928D9F5F9F73928F90E091
:1001D00008958FEF9FEF0895FC01918D828D981700
:1001E00031F0828DE80FF11D858D90E008958FEF3D
:1001F0009FEF0895FC01918D228D892F90E0805C06
:100200009F4F821B91098F739927089588EB93E084
:100210000E94FA0021E0892B09F420E0822F089542
:10022000FC01848DDF01A80FB11DA35ABF4F2C9193
:10023000848D90E001968F739927848FA689B78962
:100240002C93A089B1898C91837080648C93938D59
:10025000848D981306C00288F389E02D80818F7DFC
:1002600080830895EF92FF920F931F93CF93DF93B4
:10027000EC0181E0888F9B8D8C8D981305C0E889F7
:10028000F989808185FD26C0F62E0B8D10E00F5F69
:100290001F4F0F731127E02E8C8DE8120CC00FB684
:1002A00007FCFACFE889F989808185FFF5CFCE0177
:1002B0000E941001F1CF8B8DFE01E80FF11DE35A72
:1002C000FF4FF0829FB7F8940B8FEA89FB898081FA
:1002D00080620AC09FB7F894EE89FF896083E8893D
:1002E000F98980818370806480839FBF81E090E082
:1002F000DF91CF911F910F91FF90EF900895CF93D1
:10030000DF93EC01888D8823C9F0EA89FB8980811D
:1003100085FD05C0A889B9898C9186FD0FC00FB6EF
:1003200007FCF5CF808185FFF2CFA889B9898C9130
:1003300085FFEDCFCE010E941001E7CFDF91CF9175
:10034000089580E090E0892B29F00E940601811138
:100350000C940000089590E0FC01EE58FF4F2491AA
:10036000FC01E255FF4F3491FC01E656FF4FE4914A
:10037000EE2309F43CC0222339F1233091F038F404
:100380002130A9F0223001F584B58F7D12C02730CD
:1003900091F02830A1F02430B9F4809180008F7D55
:1003A00003C0809180008F77809380000DC084B55A
:1003B0008F7784BD09C08091B0008F7703C0809192
:1003C000B0008F7D8093B000F0E0EE0FFF1FE0578C
:1003D000FF4FA591B4919FB7F894611104C08C911F
:1003E0003095382302C0EC913E2B3C939FBF08957B
:1003F000CF93DF9390E0FC01E255FF4F2491FC0185
:10040000E656FF4F8491882361F190E0880F991F91
:10041000FC01E859FF4FC591D491FC01E057FF4F13
:10042000A591B491611109C09FB7F8948881209576
:1004300082238883EC912E230BC0623061F49FB736
:10044000F8948881322F309583238883EC912E2B6A
:100450002C939FBF06C08FB7F894E8812E2B28837A
:100460008FBFDF91CF9108953FB7F8948091AF038C
:100470009091B003A091B103B091B20326B5A89BAF
:1004800005C02F3F19F00196A11DB11D3FBFBA2F26
:10049000A92F982F8827820F911DA11DB11DBC0186
:1004A000CD0142E0660F771F881F991F4A95D1F74B
:1004B00008958F929F92AF92BF92CF92DF92EF9268
:1004C000FF926B017C010E9434024B015C01C1145C
:1004D000D104E104F104F1F00E943402DC01CB010B
:1004E00088199909AA09BB09883E9340A105B1055D
:1004F00070F321E0C21AD108E108F10888EE880EF5
:1005000083E0981EA11CB11CC114D104E104F104C4
:1005100019F7DDCFFF90EF90DF90CF90BF90AF90B5
:100520009F908F9008952091B6033091B7032817BC
:10053000390771F49091B4038091B503981741F095
:10054000E091B403F0E0E659FC4F808190E008951B
:100550008FEF9FEF089508951F93CF93DF93DC01F2
:100560005C968D919C915D97009739F421E030E085
:1005700013963C932E9312973BC05196ED91FC91AC
:10058000529750962C915097322F30951FB75E9608
:100590004C915E97742F727041FD6095F894408184
:1005A000772311F0422B01C043234083EC012197B4
:1005B000F1F748E0508160FF02C0522B01C0532385
:1005C0005083EC012197F1F76695415099F78081AE
:1005D000772319F08323808302C0282B20831FBF39
:1005E0005C968D919C915D970197F1F781E090E089
:1005F000DF91CF911F9108952091B6033091B703F9
:100600002817390771F48091B5032091B40390E065
:10061000805C9F4F821B910960E470E00E94100B88
:10062000089580E090E008952091B6033091B703DB
:1006300028173907B9F49091B4038091B50398173E
:1006400089F0E091B403F0E0E659FC4F80812091FD
:10065000B40330E02F5F3F4F2F7333272093B40351
:1006600090E008958FEF9FEF0895089580E090E067
:100670000895CF93C82F61E00E94AB0169E170E05B
:1006800080E090E00E94590260E08C2F0E94AB0154
:1006900069E170E080E090E0CF910C94590261151F
:1006A000710579F0FB0101900020E9F73197AF0166
:1006B000461B570BDC01ED91FC910280F381E02D8C
:1006C000099480E090E00895FC01448155816081A7
:1006D000718188EB93E00E949F006AE271E088EBF1
:1006E00093E00C944F030E94250D0F931F93CF931B
:1006F000DF93EC0188819981009729F02A813B8161
:100700002617370788F48B016F5F7F4F0E945F0CBD
:10071000009761F0998388831B830A832C813D8134
:10072000232B11F4FC01108281E001C080E0DF91F5
:10073000CF911F910F910895EF92FF920F931F9306
:10074000CF93DF936115710511F480E01CC0411552
:100750005105C1F07B01EC018C819D818A01080F5C
:10076000191FB801CE010E947503882371F32881F7
:1007700039818C819D81B701820F931F0E943C0DAE
:100780001D830C8381E0DF91CF911F910F91FF902A
:10079000EF900895CF93DF93EC0164EF71E080E078
:1007A00090E00E94590282E090E00E94390341E00B
:1007B00050E06BE271E0CE010E949C036881798178
:1007C00085E594E00E944F0364EF71E080E090E0E3
:1007D0000E94590285E594E00E94FC02892B71F089
:1007E00085E594E00E941403682F88EB93E00E9453
:1007F000320183E090E00E943903ECCFDF91CF918A
:100800000895CF93DF93EC0188819981009711F0CF
:100810000E94D60B198218821D821C821B821A82AA
:10082000DF91CF910895CF93DF93EC0161157105AE
:1008300061F0FB0101900020E9F73197AF01461B01
:10084000570B0E949C03811103C0CE010E9401043A
:10085000CE01DF91CF910895CF93DF93EC01FB019F
:1008600044815581608171810E949C03811103C084
:10087000CE010E940104CE01DF91CF910895EF9245
:10088000FF920F931F93CF93DF93EC01198218828D
:100890001B821A821D821C826115710521F18B0158
:1008A000FB0101900020E9F731977F01E61AF70A72
:1008B000B7010E947503811109C0CE01DF91CF916C
:1008C0001F910F91FF90EF900C940104FD82EC8238
:1008D000B80188819981DF91CF911F910F91FF908D
:1008E000EF900C943C0DDF91CF911F910F91FF90F1
:1008F000EF900895EF92FF920F931F93CF93DF93A2
:10090000FC011182108213821282158214828617D2
:10091000970739F1DB010D911C9111970115110514
:1009200001F1EC011496ED90FC901597B7010E942F
:100930007503811109C0CE01DF91CF911F910F91F5
:10094000FF90EF900C940104FD82EC82B801888145
:100950009981DF91CF911F910F91FF90EF900C94AF
:100960003C0DDF91CF911F910F91FF90EF90089573
:10097000FC01808191810C94D60B1F920F920FB6CF
:100980000F9211242F933F934F935F936F937F9315
:100990008F939F93AF93BF93EF93FF9388EB93E075
:1009A0000E941001FF91EF91BF91AF919F918F91A4
:1009B0007F916F915F914F913F912F910F900FBE5B
:1009C0000F901F9018951F920F920FB60F9211243F
:1009D0002F938F939F93EF93FF93E091C803F09130
:1009E000C9038081E091CE03F091CF0382FD12C054
:1009F00090818091D1038F5F8F732091D2038217F2
:100A000051F0E091D103F0E0E854FC4F958F8093D2
:100A1000D10301C08081FF91EF919F918F912F9120
:100A20000F900FBE0F901F9018951F920F920FB648
:100A30000F9211242F933F938F939F93AF93BF9364
:100A40008091AB039091AC03A091AD03B091AE0344
:100A50003091AA0323E0230F2D3720F40196A11D26
:100A6000B11D05C026E8230F0296A11DB11D2093DC
:100A7000AA038093AB039093AC03A093AD03B09310
:100A8000AE038091AF039091B003A091B103B091F8
:100A9000B2030196A11DB11D8093AF039093B003E3
:100AA000A093B103B093B203BF91AF919F918F9187
:100AB0003F912F910F900FBE0F901F9018951F928E
:100AC0000F920FB60F9211242F933F934F935F9382
:100AD0006F937F938F939F93AF93BF93EF93FF9306
:100AE000E091B603F091B703309709F451C0968DA9
:100AF000A685B785858591FF04C09C91892329F43B
:100B000047C09C91892309F043C0A389B4899C9173
:100B10008589809589238C93868997890197F1F738
:100B2000608D718DA685B785558538E020E0CB01B5
:100B30000197F1F7822F90E095958795282F4C919A
:100B4000452309F02068315091F7868D81FD20956D
:100B50008091B50390E001968F7399273091B4038B
:100B6000381749F0A091B503B0E0A659BC4F2C93BB
:100B70008093B50303C0868D8160868F828D938DAF
:100B80000197F1F7A389B4899C918589892B8C936E
:100B9000FF91EF91BF91AF919F918F917F916F9155
:100BA0005F914F913F912F910F900FBE0F901F902B
:100BB0001895CF92DF92EF92FF921092BB031092A2
:100BC000BA0398EEC92E93E0D92EE12CF12CC092F5
:100BD000BC03D092BD03E092BE03F092BF038AE053
:100BE00091E09093B9038093B80385EC90E09093E3
:100BF000C5038093C40384EC90E09093C703809373
:100C0000C60380EC90E09093C9038093C80381EC05
:100C100090E09093CB038093CA0382EC90E0909392
:100C2000CD038093CC0386EC90E09093CF03809328
:100C3000CE031092D1031092D2031092D3031092DC
:100C4000D4036DE271E084E794E00E943F041092C7
:100C5000580410925704C0925904D0925A04E0925A
:100C60005B04F0925C048CE191E0909356048093D5
:100C7000550410926C0410926B0410926E04109242
:100C80006D041092700410926F041092720410920E
:100C90007104609173046E7F6D7F60937304669539
:100CA000617081E068278AE00E94AB0161E08AE020
:100CB0000E94F801E8EBF0E0E491E0936504E4EAD7
:100CC000F0E0E491F0E0EE0FFF1FE057FF4F859159
:100CD0009491909367048093660460E08BE00E9497
:100CE000F8018091730481FD04C061E08BE00E94F3
:100CF000AB018BE080936104E9EBF0E0E491E093D9
:100D00006204E5EAF0E0E491F0E0EE0FFF1FEA573D
:100D1000FF4F859194919093640480936304FF90B6
:100D2000EF90DF90CF900895CF93DF93CDB7DEB7EC
:100D3000AC970FB6F894DEBF0FBECDBF789484B5E4
:100D4000826084BD84B5816084BD85B5826085BDC7
:100D500085B5816085BD80916E00816080936E0055
:100D60001092810080918100826080938100809147
:100D700081008160809381008091800081608093F8
:100D800080008091B10084608093B1008091B000B8
:100D900081608093B00080917A00846080937A00B3
:100DA00080917A00826080937A0080917A008160DD
:100DB00080937A0080917A00806880937A00109204
:100DC000C10061E082E00E94F80161E083E00E94DE
:100DD000F80161E084E00E94F80161E082E00E9495
:100DE000AB0168E873E180E090E00E94590260E0A6
:100DF00082E00E94AB0161E083E00E94AB0168E801
:100E000073E180E090E00E94590283E090E00E944C
:100E1000390361E084E00E94AB01E091C803F091E6
:100E2000C90382E08083E091C403F091C50310827E
:100E3000E091C603F091C7038FEC80831092D0033A
:100E4000E091CC03F091CD0386E08083E091CA036A
:100E5000F091CB03808180618083E091CA03F0919F
:100E6000CB03808188608083E091CA03F091CB033B
:100E7000808180688083E091CA03F091CB038081F8
:100E80008F7D80831092700410926F0410926E0414
:100E900010926D0410926C0410926B048DE991E035
:100EA000909372048093710490916104963108F0DC
:100EB00058C02DEB30E030936C0420936B042BE989
:100EC00031E030936E0420936D042CE231E03093D6
:100ED000700420936F0440916800983058F031E01E
:100EE0009E3008F430E021E0822F01C0880F3A954F
:100EF000EAF701C084E0842B80936800983038F0D2
:100F00009E3040F0963148F020E030E008C02DE6F9
:100F100030E005C02BE630E002C02CE630E0309334
:100F2000690420936804983030F481E001C0880F90
:100F30009A95EAF70EC0292F30E09E3018F4285019
:100F4000310902C02E50310981E001C0880F2A9575
:100F5000EAF780936A04809171049091720401977A
:100F6000F1F780916F0490917004892B49F1E09121
:100F7000B603F091B70384E0E535F80709F130973F
:100F800039F0A389B4899C918589809589238C93B4
:100F9000809173048E7F809373041092B503109236
:100FA000B40385E594E09093B7038093B603E09192
:100FB0006804F0916904908180916A04892B808390
:100FC00061E771E08E010F5F1F4FC8010E943F046F
:100FD000C8010E94CA03C8010E94B8046EE771E00C
:100FE000C8010E943F04C8010E94CA03C8010E94B0
:100FF000B8046CE971E0C8010E943F04C8010E9476
:10100000CA03C8010E94B8046BEB71E0C8010E94DA
:101010003F04C8010E94CA03C8010E94B80468ECDA
:1010200071E0C8010E943F04C8010E94CA03C801C0
:101030000E94B80465ED71E0C8010E943F04C80138
:101040000E94CA03C8010E94B8049AE0E92EF12C5C
:1010500082E090E00E94390364E670E080E090E076
:101060000E94590283E090E00E94390364E670E038
:1010700080E090E00E94590284E090E00E943903F1
:1010800064E670E080E090E00E945902E1E0EE1A30
:10109000F108F1F661EE71E0C8010E943F04C80159
:1010A0000E946403C8010E94B8046CE271E0CE01A2
:1010B00087960E943F0469EE71E085E594E00E9406
:1010C0004F0365EF71E0C8010E943F04C8010E9410
:1010D0006403C8010E94B80485E594E00E94FC0204
:1010E000892BD1F085E594E00E9414034AE0B80111
:1010F0000E94A40AF80101900020E9F73197AF019E
:10110000401B510BB801CE0187960E949C0383E0DF
:1011100090E00E943903E0CF68E072E0CE010996CA
:101120000E943F04BE01695D7F4FCE0109960E9477
:101130002C04BC01C8010E947A04C8010E94640307
:10114000C8010E94B804CE0109960E94B804BE01ED
:10115000695D7F4FCE014B960E947A0469E172E08F
:10116000C8010E943F04C8010E946403C8010E9494
:10117000B8046CE271E0CE0145960E943F046CE237
:1011800071E0CE010F960E943F046F8D78A1675DDC
:101190007D4FC8010E943F04C8010E946403C8013A
:1011A0000E94B80462E472E0C8010E943F04BE01DC
:1011B000655E7F4FC8010E942C04BC01CE010996D8
:1011C0000E947A04CE0109960E946403CE0109961A
:1011D0000E94B804C8010E94B804C12CD12CE12C93
:1011E000F12C8F8D98A1E816F90608F06CC0B701B4
:1011F000CE014B960E948D00FC0180818C3271F4EF
:101200006FE672E0C8010E943F04C8010E946403B7
:10121000C8010E94B804FFEFCF1ADF0A83E0C816A6
:10122000D10421F5B701CE014B960E948D00FC013F
:101230006081062E000C770B67587D4FC8010E9415
:101240003F04C8010E946403C8010E94B804B701AA
:10125000CE014B960E948D00FC01808189831A8209
:1012600041E050E0B801CE01459627C0F4E0CF162A
:10127000D10429F5B701CE014B960E948D00FC01E7
:101280006081062E000C770B67587D4FC8010E94C5
:101290003F04C8010E946403C8010E94B804B7015A
:1012A000CE014B960E948D00FC01808189831A82B9
:1012B00041E050E0B801CE010F960E949C03FFEF81
:1012C000EF1AFF0A8ECF898D9A8D892B09F416C1EA
:1012D0008B899C89892B09F411C16AE473E0C801E8
:1012E0000E943F04BE016B5E7F4FC8010E942C0428
:1012F000BC01CE0109960E947A04CE0109960E9493
:101300006403CE0109960E94B804C8010E94B80483
:1013100064E573E0C8010E943F04BE016B5E7F4F2D
:10132000C8010E942C04BC01CE0109960E947A04D7
:10133000CE0109960E946403CE0109960E94B8046A
:10134000C8010E94B80464E774E0C8010E947A04EE
:101350006EE573E0C8010E941304BE016B5E7F4F0F
:101360000E942C0464E673E00E941304BE01615FD6
:101370007F4F0E942C04BC01CE0181960E947A040A
:10138000C8010E94B804CE010F960E94B804CE0195
:1013900045960E94B804CE014B960E94B8048DA1D8
:1013A0009EA1892B19F16AE872E089A19AA10E9495
:1013B000330D892BD9F460E972E0C8010E943F0423
:1013C000C8010E946403C8010E94B80484E1E82EA9
:1013D000F12C82E090E00E94390381E0E81AF108E4
:1013E000C1F760ED77E080E090E07BC069EC72E0EF
:1013F000CE0109960E943F04BE016F5D7F4FCE0172
:1014000009960E942C04BC01C8010E947A04C801FC
:101410000E946403C8010E94B804CE0109960E948C
:10142000B8046EED72E0C8010E943F04C8010E943A
:10143000CA03C8010E94B80462EF72E0C8010E94AA
:101440003F04C8010E94CA03C8010E94B8046FEF9C
:1014500072E0CE0109960E943F04BE016F5D7F4F8E
:10146000CE0109960E942C046EE073E00E941304E2
:10147000BC01C8010E947A04C8010E94CA03C801C5
:101480000E94B804CE0109960E94B80460E173E09E
:10149000C8010E943F04C8010E94CA03C8010E94FB
:1014A000B80468EB7BE080E090E00E94590260E2C3
:1014B00073E0C8010E943F04C8010E94CA03C8012A
:1014C0000E94B8046CE273E0C8010E943F04C801A6
:1014D0000E946403C8010E94B80468E873E180E0D8
:1014E00090E00E945902CE0181960E94B804CE017C
:1014F00087960E94B8040E94A101CCCD6AE872E0F0
:10150000CE0181960E943F043ECF8CE191E0909302
:101510005604809355048091B6039091B703855586
:10152000944071F4E0916804F09169049081809195
:101530006A048095892380831092B7031092B603C2
:1015400084E794E00C94B804BB274A3031F4992323
:1015500022F4BDE2909581959F4F0C94B00ABB2771
:10156000FB015527AA27880F991FAA1FA41710F05F
:10157000A41B83955051B9F7A05DAA3308F0A95D6B
:10158000A193009779F7B111B1931192CB010C940B
:10159000C90ADC01FC01672F71917723E1F73297CB
:1015A00004C07C916D9370836291AE17BF07C8F33E
:1015B00008952F923F924F925F926F927F928F92F7
:1015C0009F92AF92BF92CF92DF92EF92FF920F93D2
:1015D0001F93CF93DF93CDB7DEB7CA1BDB0B0FB6DC
:1015E000F894DEBF0FBECDBF09942A883988488899
:1015F0005F846E847D848C849B84AA84B984C8842F
:10160000DF80EE80FD800C811B81AA81B981CE0F25
:10161000D11D0FB6F894DEBF0FBECDBFED0108950A
:1016200097FB072E16F4009407D077FD09D00E948F
:10163000240B07FC05D03EF4909581959F4F0895AB
:10164000709561957F4F0895AA1BBB1B51E107C0A0
:10165000AA1FBB1FA617B70710F0A61BB70B881F42
:10166000991F5A95A9F780959095BC01CD010895D1
:10167000EE0FFF1F0590F491E02D09940F931F9337
:10168000CF93DF938230910510F482E090E0E091F7
:101690007C04F0917D0420E030E0A0E0B0E03097E1
:1016A00019F1408151810281138148175907C8F00F
:1016B0008417950769F4109731F012960C931297DE
:1016C00013961C9327C000937C0410937D0422C0C2
:1016D0002115310519F04217530718F49A01BD017D
:1016E000EF01DF01F801DBCF21153105F9F0281BEF
:1016F000390B2430310580F48A819B816115710595
:1017000021F0FB019383828304C090937D04809336
:101710007C04FE01329644C0FE01E20FF31F819368
:10172000919322503109398328833AC020917A0459
:1017300030917B04232B41F420910201309103016D
:1017400030937B0420937A042091000130910101B1
:101750002115310541F42DB73EB740910401509158
:101760000501241B350BE0917A04F0917B04E2170C
:10177000F307A0F42E1B3F0B2817390778F0AC01B4
:101780004E5F5F4F2417350748F04E0F5F1F509391
:101790007B0440937A048193919302C0E0E0F0E0EF
:1017A000CF01DF91CF911F910F910895CF93DF93D8
:1017B000009709F481C0FC01329713821282A09134
:1017C0007C04B0917D04109781F420813181820FD7
:1017D000931F20917A0430917B042817390751F523
:1017E000F0937B04E0937A0467C0ED0120E030E0E1
:1017F000CE17DF0740F44A815B819E0141155105F8
:10180000F1F0EA01F5CFD383C28340815181840F87
:10181000951FC817D90759F488819981840F951F9E
:101820000296918380838A819B8193838283211591
:10183000310529F4F0937D04E0937C043DC0E90177
:10184000FB83EA8349915991C40FD51FEC17FD071B
:1018500061F480819181840F951F0296E90199833B
:101860008883828193819B838A83E0E0F0E01296F3
:101870008D919C911397009719F0FD01DC01F7CF32
:101880008D919C9111979D012E5F3F4F820F931F69
:1018900020917A0430917B042817390769F4309736
:1018A00029F410927D0410927C0402C013821282EB
:1018B000B0937B04A0937A04DF91CF910895A0E0C8
:1018C000B0E0E5E6FCE00C94DD0AEC01009721F4C1
:1018D000CB010E943E0BB4C0FC01E60FF71F9C0138
:1018E00022503109E217F30708F4A8C0D9010D917D
:1018F0001C91119706171707B0F00530110508F471
:101900009BC0C80104978617970708F495C002503A
:101910001109061B170B019311936D937C93CF0153
:101920000E94D60B89C05B01A01AB10A4C01800E3F
:10193000911EA0917C04B0917D04612C712CE12C4E
:10194000F12C109709F446C08D919C911197A81520
:10195000B905B1F56C0142E0C40ED11CCA14DB0418
:1019600078F14C018A189B08640142E0C40ED11C36
:101970001296BC9012971396AC91B5E0CB16D10499
:1019800040F0B282A38391828082D9016D937C93CF
:1019900009C00E5F1F4F800F911FF9019183808353
:1019A000EB2DFA2FE114F10431F0D7011396FC93DB
:1019B000EE93129741C0F0937D04E0937C043CC009
:1019C0006816790608F43C017D0112960D90BC91D1
:1019D000A02DB7CF80917A0490917B048816990648
:1019E000E1F466167706C8F4809100019091010138
:1019F000009741F48DB79EB74091040150910501C5
:101A0000841B950BE817F907C8F4F0937B04E09367
:101A10007A04F901718360830FC0CB010E943E0BF1
:101A20007C01009759F0A801BE010E942A0DCE0149
:101A30000E94D60BC70104C0CE0102C080E090E036
:101A4000CDB7DEB7EEE00C94F90A81E090E0F894AF
:101A50000C94430DFB01DC0102C001900D9241503A
:101A60005040D8F70895FB01DC018D910190801959
:101A70000110D9F3990B0895FB01DC0101900D923F
:101A80000020E1F7089510E0C2E6D0E004C0FE01B6
:101A90000E94380B2196C336D107C9F7F894FFCFBF
:101AA00000007E0480000000000032019F00C90099
:101AB0007F01FA00D800EC0000000000AC029F009B
:101AC0003603AB02FC02140393020D0A006874741F
:101AD00070733A2F2F6C61726176656C2E78646D2D
:101AE000746B2E6F72672F6770732F73696D2D671C
:101AF00070732E7068703F6B65793D6339336D315B
:101B00006E6273384653536D7839333241736B6C60
:101B10000061742B63676E737077723D310061747E
:101B20002B73617062723D332C312C22434F4E5423
:101B3000595045222C2247505253220061742B7376
:101B4000617062723D332C312C2241504E222C2286
:101B500077686F6C6573616C65220061742B7361CB
:101B60007062723D312C310061742B73617062724E
:101B70003D322C310061742B68747470696E697425
:101B800000496E206C6F6F700061742B63676E7319
:101B9000696E660A00697373756564204750532047
:101BA000636F6D6D616E6400476F74204750532002
:101BB000737472696E673A2000496E20666F726DA9
:101BC000207265717565737400537472696E672055
:101BD0006C656E677468206F66206770735F696EEE
:101BE000200047657474696E67206C617469747550
:101BF000646520616E64206C6F6E676974756465DE
:101C00002066726F6D20737472696E673A200048A7
:101C1000697420636F6D6D61004465627567676903
:101C20006E6720636861723A20004552524F52003D
:101C3000436F756C646E277420676574204750533A
:101C400020636F6F7264696E617465732C207072AB
:101C50006F6261626C79206E6F74207761726D655E
:101C600064207570207965740053656E64696E67D1
:101C7000207265717565737420746F3A2000617409
:101C80002B68747470706172613D22434944222C48
:101C9000310061742B6874747073736C3D3100682B
:101CA000747470706172613D2255524C222C220076
:101CB00061742B68747470616374696F6E3D310078
:101CC00061742B687474707265616400537563632A
:101CD00065737366756C6C79206465706C6F79657B
:101CE00064207265717565737400476F74206C6150
:101CF000743A2000476F74206C6F6E3A2000266C97
:0A1D000061743D00266C6F6E3D001B
:00000001FF
