:100000000C9463000C948B000C948B000C941308DC
:100010000C9413080C9413080C948B000C948B0014
:100020000C948B000C948B000C948B000C948B0024
:100030000C948B000C948B000C948B000C948B0014
:100040000C94C9070C948B000C9497070C947107BF
:100050000C948B000C948B000C948B000C948B00F4
:100060000C948B000C948B000000000024002700EF
:100070002A0000000008000201000003040700003D
:1000800000000000000000000000230026002900FE
:1000900000000000250028002B00040404040404D0
:1000A0000404020202020202030303030303010227
:1000B00004081020408001020408102001020408F6
:1000C00010208D080D0B11241FBECFEFD8E0DEBF2E
:1000D000CDBF24E0AAE5B3E001C01D92AE36B20761
:1000E000E1F713E0A0E0B1E0ECE5FBE102C0059030
:1000F0000D92AA35B107D9F710E0C2E6D0E004C0EE
:100100002197FE010E948B0BC136D107C9F70E94CF
:1001100048090C94A10D0C940000FC012481358148
:100120006217730720F480819181009729F410925F
:10013000A30383EA93E00895860F971F0895CF9253
:10014000DF92EF92FF920F931F93CF93DF936C0197
:100150007A018B01C0E0D0E0CE15DF0581F0D80137
:100160006D918D01D601ED91FC910190F081E02D12
:10017000C6010995892B11F02196EECF7E01C701AA
:10018000DF91CF911F910F91FF90EF90DF90CF9073
:100190000895FC01538D448D252F30E0842F90E08D
:1001A000821B930B541710F0CF9608950197089572
:1001B000FC01918D828D981761F0828DDF01A80F6F
:1001C000B11D5D968C91928D9F5F9F73928F90E091
:1001D00008958FEF9FEF0895FC01918D828D981700
:1001E00031F0828DE80FF11D858D90E008958FEF3D
:1001F0009FEF0895FC01918D228D892F90E0805C06
:100200009F4F821B91098F739927089588EA93E085
:100210000E94FA0021E0892B09F420E0822F089542
:10022000FC01848DDF01A80FB11DA35ABF4F2C9193
:10023000848D90E001968F739927848FA689B78962
:100240002C93A089B1898C91837080648C93938D59
:10025000848D981306C00288F389E02D80818F7DFC
:1002600080830895EF92FF920F931F93CF93DF93B4
:10027000EC0181E0888F9B8D8C8D981305C0E889F7
:10028000F989808185FD26C0F62E0B8D10E00F5F69
:100290001F4F0F731127E02E8C8DE8120CC00FB684
:1002A00007FCFACFE889F989808185FFF5CFCE0177
:1002B0000E941001F1CF8B8DFE01E80FF11DE35A72
:1002C000FF4FF0829FB7F8940B8FEA89FB898081FA
:1002D00080620AC09FB7F894EE89FF896083E8893D
:1002E000F98980818370806480839FBF81E090E082
:1002F000DF91CF911F910F91FF90EF900895CF93D1
:10030000DF93EC01888D8823C9F0EA89FB8980811D
:1003100085FD05C0A889B9898C9186FD0FC00FB6EF
:1003200007FCF5CF808185FFF2CFA889B9898C9130
:1003300085FFEDCFCE010E941001E7CFDF91CF9175
:10034000089580E090E0892B29F00E940601811138
:100350000C940000089590E0FC01EE58FF4F2491AA
:10036000FC01E255FF4F3491FC01E656FF4FE4914A
:10037000EE2309F43CC0222339F1233091F038F404
:100380002130A9F0223001F584B58F7D12C02730CD
:1003900091F02830A1F02430B9F4809180008F7D55
:1003A00003C0809180008F77809380000DC084B55A
:1003B0008F7784BD09C08091B0008F7703C0809192
:1003C000B0008F7D8093B000F0E0EE0FFF1FE0578C
:1003D000FF4FA591B4919FB7F894611104C08C911F
:1003E0003095382302C0EC913E2B3C939FBF08957B
:1003F000CF93DF9390E0FC01E255FF4F2491FC0185
:10040000E656FF4F8491882361F190E0880F991F91
:10041000FC01E859FF4FC591D491FC01E057FF4F13
:10042000A591B491611109C09FB7F8948881209576
:1004300082238883EC912E230BC0623061F49FB736
:10044000F8948881322F309583238883EC912E2B6A
:100450002C939FBF06C08FB7F894E8812E2B28837A
:100460008FBFDF91CF9108953FB7F89480919F039C
:100470009091A003A091A103B091A20326B5A89BDF
:1004800005C02F3F19F00196A11DB11D3FBFBA2F26
:10049000A92F982F8827820F911DA11DB11DBC0186
:1004A000CD0142E0660F771F881F991F4A95D1F74B
:1004B00008958F929F92AF92BF92CF92DF92EF9268
:1004C000FF926B017C010E9434024B015C01C1145C
:1004D000D104E104F104F1F00E943402DC01CB010B
:1004E00088199909AA09BB09883E9340A105B1055D
:1004F00070F321E0C21AD108E108F10888EE880EF5
:1005000083E0981EA11CB11CC114D104E104F104C4
:1005100019F7DDCFFF90EF90DF90CF90BF90AF90B5
:100520009F908F9008952091A6033091A7032817DC
:10053000390771F49091A4038091A503981741F0B5
:10054000E091A403F0E0E65AFC4F808190E008952A
:100550008FEF9FEF089508951F93CF93DF93DC01F2
:100560005C968D919C915D97009739F421E030E085
:1005700013963C932E9312973BC05196ED91FC91AC
:10058000529750962C915097322F30951FB75E9608
:100590004C915E97742F727041FD6095F894408184
:1005A000772311F0422B01C043234083EC012197B4
:1005B000F1F748E0508160FF02C0522B01C0532385
:1005C0005083EC012197F1F76695415099F78081AE
:1005D000772319F08323808302C0282B20831FBF39
:1005E0005C968D919C915D970197F1F781E090E089
:1005F000DF91CF911F9108952091A6033091A70319
:100600002817390771F48091A5032091A40390E085
:10061000805C9F4F821B910960E470E00E94630B35
:10062000089580E090E008952091A6033091A703FB
:1006300028173907B9F49091A4038091A50398175E
:1006400089F0E091A403F0E0E65AFC4F808120910C
:10065000A40330E02F5F3F4F2F7333272093A40371
:1006600090E008958FEF9FEF0895089580E090E067
:100670000895CF93C82F61E00E94AB0169E170E05B
:1006800080E090E00E94590260E08C2F0E94AB0154
:1006900069E170E080E090E0CF910C94590285E42C
:1006A00094E00E94FC02892B71F085E494E00E94A2
:1006B0001403682F88EA93E00E94320183E090E0FF
:1006C0000E943903ECCF08956115710579F0FB01A3
:1006D00001900020E9F73197AF01461B570BDC0171
:1006E000ED91FC910280F381E02D099480E090E08F
:1006F0000895FC01448155816081718188EA93E00D
:100700000E949F006AE271E088EA93E00C9464031F
:100710000E94780D0F931F93CF93DF93EC01888194
:100720009981009729F02A813B812617370788F4A1
:100730008B016F5F7F4F0E94B20C009761F099832D
:1007400088831B830A832C813D81232B11F4FC01B8
:10075000108281E001C080E0DF91CF911F910F9165
:100760000895EF92FF920F931F93CF93DF9361153C
:10077000710511F480E01CC041155105C1F07B01E9
:10078000EC018C819D818A01080F191FB801CE01EF
:100790000E948A03882371F3288139818C819D818D
:1007A000B701820F931F0E949A0D1D830C8381E075
:1007B000DF91CF911F910F91FF90EF900895CF930C
:1007C000DF93EC0164EF71E080E090E00E94590259
:1007D00082E090E00E94390341E050E06BE271E07A
:1007E000CE010E94B1036881798185E494E00E9482
:1007F000640364EF71E080E090E00E945902DF91B1
:10080000CF910C944F03CF93DF93EC0188819981B2
:10081000009711F00E94290C198218821D821C82F7
:100820001B821A82DF91CF910895CF93DF93EC0161
:100830006115710561F0FB0101900020E9F7319726
:10084000AF01461B570B0E94B103811103C0CE01BB
:100850000E940304CE01DF91CF910895CF93DF93DF
:10086000EC01FB0144815581608171810E94B103DB
:10087000811103C0CE010E940304CE01DF91CF910C
:100880000895EF92FF920F931F93CF93DF93EC01A4
:10089000198218821B821A821D821C8261157105C1
:1008A00021F18B01FB0101900020E9F731977F01D5
:1008B000E61AF70AB7010E948A03811109C0CE0126
:1008C000DF91CF911F910F91FF90EF900C94030453
:1008D000FD82EC82B80188819981DF91CF911F91CF
:1008E0000F91FF90EF900C949A0DDF91CF911F9193
:1008F0000F91FF90EF900895EF92FF920F931F9347
:10090000CF93DF93FC011182108213821282158231
:1009100014828617970739F1DB010D911C9111970D
:100920000115110501F1EC011496ED90FC9015975D
:10093000B7010E948A03811109C0CE01DF91CF91D6
:100940001F910F91FF90EF900C940304FD82EC82B5
:10095000B80188819981DF91CF911F910F91FF900C
:10096000EF900C949A0DDF91CF911F910F91FF9012
:10097000EF900895FC01808191810C94290CAF9235
:10098000BF92CF92DF92EF92FF920F931F93CF937C
:10099000DF93CDB7DEB7CE51D4400FB6F894DEBFAB
:1009A0000FBECDBF6DE271E0CE0101960E94410401
:1009B000CE0101960E947903CE0101960E94BA04ED
:1009C000CE0101967C018E010F5F1D4FFC0111923B
:1009D000E017F107E1F765E371E085E494E00E9438
:1009E000640361E471E0C8010E944104C8010E94EF
:1009F0007903C8010E94BA0485E494E00E94FC02D5
:100A0000892B91F085E494E00E94FC02892B61F02F
:100A100085E494E00E941403F70181937F0183E051
:100A200090E00E943903EECFBE016F5F7F4FCE0191
:100A30008D5E9B4F0E94410464E571E0C8010E94F5
:100A40004104C8010E947903C8010E94BA046CE203
:100A500071E0CE01835F9B4F0E9441046CE271E024
:100A6000CE01895F9B4F0E944104C95EDB4F6881C4
:100A70007981C751D4406C597E4FC8010E9441040E
:100A8000C8010E947903C8010E94BA046DE771E0B1
:100A9000C8010E944104BE016D5E7B4FC8010E94E7
:100AA0002E04BC01CE018F5F9B4F0E947C04CE01BF
:100AB0008F5F9B4F0E947903CE018F5F9B4F0E94F7
:100AC000BA04C8010E94BA04C12CD12CE12CF12C2B
:100AD000C95EDB4F88819981C751D440E816F90679
:100AE00008F084C0B701CE018D5E9B4F0E948D003F
:100AF000FC0180818C32E9F46AEA71E0C8010E944D
:100B00004104C8010E947903C8010E94BA04FFEFA2
:100B1000CF1ADF0A57018FEFA81AB80AB501CE0124
:100B20008D5E9B4F0E948D00FC0180818C3209F00C
:100B30007501F3E0CF16D10441F5B701CE018D5E0A
:100B40009B4F0E948D00FC016081062E000C770BEC
:100B50006C547E4FC8010E944104C8010E94790371
:100B6000C8010E94BA04B701CE018D5E9B4F0E945E
:100B70008D00FC018081F8018083118241E050E00A
:100B8000B801CE01835F9B4F2BC0F4E0CF16D10498
:100B900049F5B701CE018D5E9B4F0E948D00FC018F
:100BA0006081062E000C770B6C547E4FC8010E94AA
:100BB0004104C8010E947903C8010E94BA04B70128
:100BC000CE018D5E9B4F0E948D00FC018081F8015B
:100BD0008083118241E050E0B801CE01895F9B4FD4
:100BE0000E94B103FFEFEF1AFF0A72CFCF5EDB4F17
:100BF00088819981C151D440049708F46AC1C55FC6
:100C0000DB4F88819981CB50D440049708F461C1AF
:100C100066E872E0C8010E944104BE01635F7B4F39
:100C2000C8010E942E04BC01CE018F5F9B4F0E9421
:100C30007C04CE018F5F9B4F0E947903CE018F5FB2
:100C40009B4F0E94BA04C8010E94BA0460E972E096
:100C5000C8010E944104BE01635F7B4FC8010E942E
:100C60002E04BC01CE018F5F9B4F0E947C04CE01FD
:100C70008F5F9B4F0E947903CE018F5F9B4F0E9435
:100C8000BA04C8010E94BA0464E674E0C8010E9474
:100C90007C046AE972E0C8010E941504BE01635F2A
:100CA0007B4F0E942E0460EA72E00E941504BE0190
:100CB000695F7B4F0E942E04BC01CE01875E9B4F73
:100CC0000E947C04C8010E94BA04CE01895F9B4F38
:100CD0000E94BA04CE01835F9B4F0E94BA04CE01EA
:100CE0008D5E9B4F0E94BA04C35EDB4F8881998161
:100CF000CD51D440892B29F165EC71E0C75EDB4F03
:100D000088819981C951D4400E94910D892BC9F4E1
:100D10006BEC71E0C8010E944104C8010E94790394
:100D2000C8010E94BA0404E110E082E090E00E9451
:100D3000390301501109C9F760ED77E080E090E0D8
:100D4000AFC064E072E0C8010E944104BE01675E6A
:100D50007B4FC8010E942E04BC01CE018F5F9B4FC8
:100D60000E947C04CE018F5F9B4F0E947903CE01CD
:100D70008F5F9B4F0E94BA04C8010E94BA04F80119
:100D8000CE018F5F9B4F1192E817F907E1F769E1F8
:100D900072E0C8010E949A0DC75EDB4F68817981BD
:100DA000C951D440C8010E94860D68E272E0C801B2
:100DB0000E94860D6BE272E0CE018F5F9B4F0E9416
:100DC0004104CE018F5F9B4F0E94DF03CE018F5FF6
:100DD0009B4F0E94BA046FE372E0CE018F5F9B4F7E
:100DE0000E944104CE018F5F9B4F0E94DF03CE0122
:100DF0008F5F9B4F0E94BA0464EF71E080E090E047
:100E00000E94590282E090E00E943903B80185E413
:100E100094E00E94640364EF71E080E090E00E943F
:100E200059020E944F036CE472E0CE018F5F9B4F2A
:100E30000E944104CE018F5F9B4F0E94DF03CE01D1
:100E40008F5F9B4F0E94BA0468EB7BE080E090E0EC
:100E50000E9459026CE572E0CE018F5F9B4F0E94A9
:100E60004104CE018F5F9B4F0E94DF03CE018F5F55
:100E70009B4F0E94BA0468E672E0CE018F5F9B4FE1
:100E80000E944104CE018F5F9B4F0E947903CE01E7
:100E90008F5F9B4F0E94BA0468E873E180E090E0A6
:100EA0000E945902CE01875E9B4F0E94BA04C25E27
:100EB000DB4F0FB6F894DEBF0FBECDBFDF91CF91F1
:100EC0001F910F91FF90EF90DF90CF90BF90AF9068
:100ED000089565EC71E0CE01875E9B4F0E9441044E
:100EE000F4CE1F920F920FB60F9211242F933F93BF
:100EF0004F935F936F937F938F939F93AF93BF9322
:100F0000EF93FF9388EA93E00E941001FF91EF9125
:100F1000BF91AF919F918F917F916F915F914F9111
:100F20003F912F910F900FBE0F901F9018951F9219
:100F30000F920FB60F9211242F938F939F93EF93DD
:100F4000FF93E091B803F091B9038081E091BE0373
:100F5000F091BF0382FD12C090818091C1038F5F29
:100F60008F732091C203821751F0E091C103F0E02A
:100F7000E855FC4F958F8093C10301C08081FF919C
:100F8000EF919F918F912F910F900FBE0F901F9017
:100F900018951F920F920FB60F9211242F933F9323
:100FA0008F939F93AF93BF9380919B0390919C03EA
:100FB000A0919D03B0919E0330919A0323E0230FEB
:100FC0002D3720F40196A11DB11D05C026E8230F81
:100FD0000296A11DB11D20939A0380939B039093C9
:100FE0009C03A0939D03B0939E0380919F039091D7
:100FF000A003A091A103B091A2030196A11DB11D70
:1010000080939F039093A003A093A103B093A203A6
:10101000BF91AF919F918F913F912F910F900FBEF4
:101020000F901F9018951F920F920FB60F921124D8
:101030002F933F934F935F936F937F938F939F93E0
:10104000AF93BF93EF93FF93E091A603F091A703B3
:10105000309709F451C0968DA685B785858591FF97
:1010600004C09C91892329F447C09C91892309F0ED
:1010700043C0A389B4899C918589809589238C93E9
:10108000868997890197F1F7608D718DA685B7855F
:10109000558538E020E0CB010197F1F7822F90E0F1
:1010A00095958795282F4C91452309F0206831505C
:1010B00091F7868D81FD20958091A50390E00196A2
:1010C0008F7399273091A403381749F0A091A50395
:1010D000B0E0A65ABC4F2C938093A50303C0868D25
:1010E0008160868F828D938D0197F1F7A389B489F2
:1010F0009C918589892B8C93FF91EF91BF91AF9142
:101100009F918F917F916F915F914F913F912F911F
:101110000F900FBE0F901F901895CF92DF92EF9215
:10112000FF921092AB031092AA0398EEC92E93E09F
:10113000D92EE12CF12CC092AC03D092AD03E092F9
:10114000AE03F092AF038AE091E09093A9038093FD
:10115000A80385EC90E09093B5038093B40384ECEE
:1011600090E09093B7038093B60380EC90E0909367
:10117000B9038093B80381EC90E09093BB03809314
:10118000BA0382EC90E09093BD038093BC0386EC9D
:1011900090E09093BF038093BE031092C10310921E
:1011A000C2031092C3031092C40366EA72E084E69D
:1011B00094E00E9441041092480410924704C092A7
:1011C0004904D0924A04E0924B04F0924C048CE122
:1011D00091E0909346048093450410925C04109231
:1011E0005B0410925E0410925D04109260041092F1
:1011F0005F041092620410926104609163046E7F38
:101200006D7F609363046695617081E068278AE072
:101210000E94AB0161E08AE00E94F801E8EBF0E097
:10122000E491E0935504E4EAF0E0E491F0E0EE0F9D
:10123000FF1FE057FF4F859194919093570480933F
:10124000560460E08BE00E94F8018091630481FD08
:1012500004C061E08BE00E94AB018BE080935104FD
:10126000E9EBF0E0E491E0935204E5EAF0E0E49188
:10127000F0E0EE0FFF1FEA57FF4F85919491909396
:10128000540480935304FF90EF90DF90CF90089523
:10129000CF93DF9300D000D000D0CDB7DEB77894E5
:1012A00084B5826084BD84B5816084BD85B582606B
:1012B00085BD85B5816085BD80916E00816080931C
:1012C0006E00109281008091810082608093810085
:1012D0008091810081608093810080918000816095
:1012E000809380008091B10084608093B1008091F0
:1012F000B00081608093B00080917A008460809318
:101300007A0080917A00826080937A0080917A00DE
:10131000816080937A0080917A00806880937A005F
:101320001092C10061E082E00E94F80161E083E078
:101330000E94F80161E084E00E94F80161E082E02F
:101340000E94AB0160E47FE180E090E00E945902DE
:1013500060E082E00E94AB0161E083E00E94AB01AB
:1013600060E47FE180E090E00E94590283E090E039
:101370000E94390361E084E00E94AB01E091B80370
:10138000F091B90382E08083E091B403F091B5035A
:101390001082E091B603F091B7038FEC8083109236
:1013A000C003E091BC03F091BD0386E08083E0912F
:1013B000BA03F091BB03808180618083E091BA031E
:1013C000F091BB03808188608083E091BA03F09143
:1013D000BB03808180688083E091BA03F091BB03F6
:1013E00080818F7D80831092600410925F04109240
:1013F0005E0410925D0410925C0410925B048DE90F
:1014000091E090936204809361049091510496312D
:1014100008F058C02DEB30E030935C0420935B045F
:101420002BE931E030935E0420935D042CE231E03F
:101430003093600420935F0440916800983058F026
:1014400031E09E3008F430E021E0822F01C0880FA7
:101450003A95EAF701C084E0842B809368009830C5
:1014600038F09E3040F0963148F020E030E008C07F
:101470002DE630E005C02BE630E002C02CE630E07F
:101480003093590420935804983030F481E001C01F
:10149000880F9A95EAF70EC0292F30E09E3018F495
:1014A0002850310902C02E50310981E001C0880F57
:1014B0002A95EAF780935A0480916104909162041E
:1014C0000197F1F780915F0490916004892B49F1B5
:1014D000E091A603F091A70384E0E534F80709F151
:1014E000309739F0A389B4899C91858980958923A7
:1014F0008C93809163048E7F809363041092A50384
:101500001092A40385E494E09093A7038093A6032C
:10151000E0915804F0915904908180915A04892BEC
:1015200080836AEE72E0CE0101960E944104CE01F2
:1015300001960E94DF03CE0101960E94BA0467EF74
:1015400072E0CE0101960E944104CE0101960E94F4
:10155000DF03CE0101960E94BA0465E173E0CE017B
:1015600001960E944104CE0101960E94DF03CE0144
:1015700001960E94BA0464E373E0CE0101960E94D2
:101580004104CE0101960E94DF03CE0101960E9424
:10159000BA0461E473E0CE0101960E944104CE01D9
:1015A00001960E94DF03CE0101960E94BA046EE408
:1015B00073E0CE0101960E944104CE0101960E9483
:1015C000DF03CE0101960E94BA040AE010E082E037
:1015D00090E00E94390364E670E080E090E00E94B1
:1015E000590283E090E00E94390364E670E080E0F5
:1015F00090E00E94590284E090E00E94390364E682
:1016000070E080E090E00E94590201501109F9F663
:101610000E94BF040E94A101FBCF8CE191E0909356
:101620004604809345048091A6039091A7038554B6
:10163000944071F4E0915804F091590490818091A4
:101640005A048095892380831092A7031092A603E1
:1016500084E694E00C94BA042F923F924F925F92EA
:101660006F927F928F929F92AF92BF92CF92DF92B2
:10167000EF92FF920F931F93CF93DF93CDB7DEB717
:10168000CA1BDB0B0FB6F894DEBF0FBECDBF0994AB
:101690002A88398848885F846E847D848C849B8402
:1016A000AA84B984C884DF80EE80FD800C811B8110
:1016B000AA81B981CE0FD11D0FB6F894DEBF0FBE3F
:1016C000CDBFED01089597FB072E16F4009407D0C7
:1016D00077FD09D00E94770B07FC05D03EF490956A
:1016E00081959F4F0895709561957F4F0895AA1B2E
:1016F000BB1B51E107C0AA1FBB1FA617B70710F0FD
:10170000A61BB70B881F991F5A95A9F7809590952E
:10171000BC01CD010895EE0FFF1F0590F491E02D5F
:1017200009940F931F93CF93DF938230910510F4A8
:1017300082E090E0E0916C04F0916D0420E030E0F4
:10174000A0E0B0E0309719F140815181028113810E
:1017500048175907C8F08417950769F4109731F0B6
:1017600012960C93129713961C9327C000936C0447
:1017700010936D0422C02115310519F0421753074B
:1017800018F49A01BD01EF01DF01F801DBCF21154B
:101790003105F9F0281B390B2430310580F48A819A
:1017A0009B816115710521F0FB019383828304C045
:1017B00090936D0480936C04FE01329644C0FE0148
:1017C000E20FF31F819391932250310939832883CB
:1017D0003AC020916A0430916B04232B41F420918C
:1017E00002013091030130936B0420936A0420912D
:1017F0000001309101012115310541F42DB73EB7AB
:101800004091040150910501241B350BE0916A04BD
:10181000F0916B04E217F307A0F42E1B3F0B28177F
:10182000390778F0AC014E5F5F4F2417350748F059
:101830004E0F5F1F50936B0440936A048193919302
:1018400002C0E0E0F0E0CF01DF91CF911F910F9156
:101850000895CF93DF93009709F481C0FC0132977C
:1018600013821282A0916C04B0916D04109781F4E0
:1018700020813181820F931F20916A0430916B0483
:101880002817390751F5F0936B04E0936A0467C099
:10189000ED0120E030E0CE17DF0740F44A815B81A4
:1018A0009E0141155105F1F0EA01F5CFD383C283C2
:1018B00040815181840F951FC817D90759F4888139
:1018C0009981840F951F0296918380838A819B81E1
:1018D000938382832115310529F4F0936D04E093FD
:1018E0006C043DC0E901FB83EA8349915991C40F1F
:1018F000D51FEC17FD0761F480819181840F951F3E
:101900000296E90199838883828193819B838A83EC
:10191000E0E0F0E012968D919C911397009719F0FA
:10192000FD01DC01F7CF8D919C9111979D012E5FF8
:101930003F4F820F931F20916A0430916B04281748
:10194000390769F4309729F410926D0410926C04F1
:1019500002C013821282B0936B04A0936A04DF91D9
:10196000CF910895A0E0B0E0E8EBFCE00C94300BE0
:10197000EC01009721F4CB010E94910BB4C0FC0153
:10198000E60FF71F9C0122503109E217F30708F414
:10199000A8C0D9010D911C91119706171707B0F037
:1019A0000530110508F49BC0C801049786179707F6
:1019B00008F495C002501109061B170B01931193EF
:1019C0006D937C93CF010E94290C89C05B01A01A02
:1019D000B10A4C01800E911EA0916C04B0916D046F
:1019E000612C712CE12CF12C109709F446C08D91DB
:1019F0009C911197A815B905B1F56C0142E0C40E90
:101A0000D11CCA14DB0478F14C018A189B086401CC
:101A100042E0C40ED11C1296BC9012971396AC9162
:101A2000B5E0CB16D10440F0B282A38391828082CC
:101A3000D9016D937C9309C00E5F1F4F800F911FDA
:101A4000F90191838083EB2DFA2FE114F10431F039
:101A5000D7011396FC93EE93129741C0F0936D0457
:101A6000E0936C043CC06816790608F43C017D01E3
:101A700012960D90BC91A02DB7CF80916A049091E1
:101A80006B0488169906E1F466167706C8F480910F
:101A9000000190910101009741F48DB79EB74091EC
:101AA000040150910501841B950BE817F907C8F450
:101AB000F0936B04E0936A04F901718360830FC0B3
:101AC000CB010E94910B7C01009759F0A801BE0147
:101AD0000E947D0DCE010E94290CC70104C0CE01D9
:101AE00002C080E090E0CDB7DEB7EEE00C944C0B86
:101AF00081E090E0F8940C94A10DFB01DC0102C0A0
:101B000001900D9241505040D8F70895FB01DC013F
:101B10000D900020E9F7119701900D920020E1F758
:101B20000895FB01DC018D91019080190110D9F31A
:101B3000990B0895FB01DC0101900D920020E1F763
:101B4000089510E0C2E6D0E004C0FE010E948B0BB5
:0C1B50002196C336D107C9F7F894FFCFE7
:101B5C0000006E0480000000000032019F00C900EC
:101B6C007F01FA00D800EC0000000000AC029F00DE
:101B7C003603AB02FC02140393020D0A00496E20DB
:101B8C006C6F6F700061742B63676E73696E660A9D
:101B9C00006973737565642047505320636F6D6DD6
:101BAC00616E6400496E20666F726D20726571758E
:101BBC0065737400537472696E67206C656E67741C
:101BCC0068206F66206770735F696E2000476574CC
:101BDC0074696E67206C6174697475646520616EDC
:101BEC0064206C6F6E6769747564652066726F6DC6
:101BFC0020737472696E673A200048697420636FB1
:101C0C006D6D6100446562756767696E6720636816
:101C1C0061723A20004552524F5200436F756C640A
:101C2C006E2774206765742047505320636F6F7262
:101C3C0064696E617465732C2070726F6261626C82
:101C4C0079206E6F74207761726D656420757020D9
:101C5C007965740053656E64696E67207265717581
:101C6C0065737420746F3A200068747470706172BC
:101C7C00613D2255524C2200220A0061742B68747B
:101C8C007470706172613D22434944222C310061B1
:101C9C00742B6874747073736C3D310061742B68B1
:101CAC00747470616374696F6E3D310061742B687C
:101CBC0074747072656164005375636365737366E5
:101CCC00756C6C79206465706C6F796564207265D5
:101CDC00717565737400476F74206C61743A2000E1
:101CEC00476F74206C6F6E3A2000266C61743D0057
:101CFC00266C6F6E3D0068747470733A2F2F6C6194
:101D0C00726176656C2E78646D746B2E6F72672FB2
:101D1C006770732F73696D2D6770732E7068703FC9
:101D2C006B65793D6339336D316E6273384653534D
:101D3C006D7839333241736B6C0061742B63676E51
:101D4C00737077723D310061742B73617062723DF8
:101D5C00332C312C22434F4E54595045222C2247C0
:101D6C00505253220061742B73617062723D332C9C
:101D7C00312C2241504E222C2277686F6C65736196
:101D8C006C65220061742B73617062723D312C3171
:101D9C000061742B73617062723D322C310061747E
:0A1DAC002B68747470696E6974008E
:00000001FF
