:100000000C9463000C948B000C948B000C94E10511
:100010000C94E1050C94E1050C948B000C948B007E
:100020000C948B000C948B000C948B000C948B0024
:100030000C948B000C948B000C948B000C948B0014
:100040000C9497050C948B000C9465050C943F055B
:100050000C948B000C948B000C948B000C948B00F4
:100060000C948B000C948B000000000024002700EF
:100070002A0000000008000201000003040700003D
:1000800000000000000000000000230026002900FE
:1000900000000000250028002B00040404040404D0
:1000A0000404020202020202030303030303010227
:1000B00004081020408001020408102001020408F6
:1000C00010205B06250911241FBECFEFD8E0DEBF4C
:1000D000CDBF13E0A0E0B1E0EAE2F3E102C0059099
:1000E0000D92AE34B107D9F724E0AEE4B3E001C01D
:1000F0001D92A735B207E1F710E0C2E6D0E004C0D8
:100100002197FE010E946909C136D107C9F70E94F3
:1001100006070C9488090C940000CF92DF92EF92AE
:10012000FF920F931F93CF93DF936C017A018B01A2
:10013000C0E0D0E0CE15DF0581F0D8016D918D01D2
:10014000D601ED91FC910190F081E02DC601099559
:10015000892B11F02196EECF7E01C701DF91CF915F
:100160001F910F91FF90EF90DF90CF900895FC01C9
:10017000538D448D252F30E0842F90E0821B930B0C
:10018000541710F0CF96089501970895FC01918DB2
:10019000828D981761F0828DDF01A80FB11D5D96E9
:1001A0008C91928D9F5F9F73928F90E008958FEF57
:1001B0009FEF0895FC01918D828D981731F0828D0B
:1001C000E80FF11D858D90E008958FEF9FEF089562
:1001D000FC01918D228D892F90E0805C9F4F821BC6
:1001E00091098F73992708958BE993E00E94E800A5
:1001F00021E0892B09F420E0822F0895FC01848DF1
:10020000DF01A80FB11DA35ABF4F2C91848D90E040
:1002100001968F739927848FA689B7892C93A0891B
:10022000B1898C91837080648C93938D848D9813A5
:1002300006C00288F389E02D80818F7D8083089538
:10024000EF92FF920F931F93CF93DF93EC0181E026
:10025000888F9B8D8C8D981305C0E889F9898081E2
:1002600085FD26C0F62E0B8D10E00F5F1F4F0F731C
:100270001127E02E8C8DE8120CC00FB607FCFACFC8
:10028000E889F989808185FFF5CFCE010E94FE00C3
:10029000F1CF8B8DFE01E80FF11DE35AFF4FF08285
:1002A0009FB7F8940B8FEA89FB89808180620AC02E
:1002B0009FB7F894EE89FF896083E889F989808186
:1002C0008370806480839FBF81E090E0DF91CF9155
:1002D0001F910F91FF90EF900895682F8BE993E0A5
:1002E0000C942001CF93DF93EC01888D8823C9F013
:1002F000EA89FB89808185FD05C0A889B9898C912F
:1003000086FD0FC00FB607FCF5CF808185FFF2CFC9
:10031000A889B9898C9185FFEDCFCE010E94FE009E
:10032000E7CFDF91CF91089580E090E0892B29F00D
:100330000E94F40081110C940000089590E0FC01EB
:10034000EE58FF4F2491FC01E255FF4F3491FC0120
:10035000E656FF4FE491EE2309F43CC0222339F125
:10036000233091F038F42130A9F0223001F584B522
:100370008F7D12C0273091F02830A1F02430B9F4DD
:10038000809180008F7D03C0809180008F77809363
:1003900080000DC084B58F7784BD09C08091B00006
:1003A0008F7703C08091B0008F7D8093B000F0E024
:1003B000EE0FFF1FE057FF4FA591B4919FB7F89440
:1003C000611104C08C913095382302C0EC913E2B12
:1003D0003C939FBF0895CF93DF9390E0FC01E255DB
:1003E000FF4F2491FC01E656FF4F8491882361F171
:1003F00090E0880F991FFC01E859FF4FC591D491F7
:10040000FC01E057FF4FA591B491611109C09FB75E
:10041000F8948881209582238883EC912E230BC049
:10042000623061F49FB7F8948881322F309583232E
:100430008883EC912E2B2C939FBF06C08FB7F89426
:10044000E8812E2B28838FBFDF91CF9108953FB78E
:10045000F8948091930390919403A0919503B091A7
:10046000960326B5A89B05C02F3F19F00196A11D44
:10047000B11D3FBFBA2FA92F982F8827820F911D3A
:10048000A11DB11DBC01CD0142E0660F771F881F81
:10049000991F4A95D1F708958F929F92AF92BF927C
:1004A000CF92DF92EF92FF926B017C010E942702B4
:1004B0004B015C01C114D104E104F104F1F00E948C
:1004C0002702DC01CB0188199909AA09BB09883EDA
:1004D0009340A105B10570F321E0C21AD108E108EB
:1004E000F10888EE880E83E0981EA11CB11CC1148F
:1004F000D104E104F10419F7DDCFFF90EF90DF9014
:10050000CF90BF90AF909F908F90089520919903C6
:1005100030919A032817390771F4909197038091CD
:100520009803981741F0E0919703F0E0E25BFC4FED
:10053000808190E008958FEF9FEF089508951F93B5
:10054000CF93DF93DC015C968D919C915D97009732
:1005500039F421E030E013963C932E9312973BC080
:100560005196ED91FC91529750962C915097322FC5
:1005700030951FB75E964C915E97742F727041FD57
:100580006095F8944081772311F0422B01C04323FA
:100590004083EC012197F1F748E0508160FF02C0F1
:1005A000522B01C053235083EC012197F1F766953C
:1005B000415099F78081772319F08323808302C00B
:1005C000282B20831FBF5C968D919C915D9701978E
:1005D000F1F781E090E0DF91CF911F910895209194
:1005E000990330919A032817390771F48091980381
:1005F0002091970390E0805C9F4F821B910960E4FB
:1006000070E00E944109089580E090E008952091F3
:10061000990330919A0328173907B9F490919703F9
:1006200080919803981789F0E0919703F0E0E25BDE
:10063000FC4F80812091970330E02F5F3F4F2F7355
:1006400033272093970390E008958FEF9FEF08954D
:10065000089580E090E00895CF93C82F61E00E9454
:100660009E0169E170E080E090E00E944C0260E051
:100670008C2F0E949E0169E170E080E090E0CF91B4
:100680000C944C020E946F096115710579F0FB0111
:1006900001900020E9F73197AF01461B570BDC01B1
:1006A000ED91FC910280F381E02D099480E090E0CF
:1006B0000895CF93DF93BC018BE993E00E9444033C
:1006C000EC0164E271E08BE993E00E9444038C0F3B
:1006D0009D1FDF91CF910895CF92DF92EF92FF920D
:1006E0000F931F93CF93DF93CDB7DEB7C054D240A3
:1006F0000FB6F894DEBF0FBECDBF8DE291E00E9431
:1007000059030FE010E082E090E00E942C0364E6C1
:1007100070E080E090E00E944C0283E090E00E9454
:100720002C0364E670E080E090E00E944C020150EF
:10073000110949F761E084E00E949E0185E391E0A0
:100740000E945903CE0101967C018E010F5F1D4F5F
:10075000FC0111920E171F07E1F768EE73E080E0CD
:1007600090E00E944C0260E571E088E394E00E9412
:10077000440382E090E00E942C03670188E394E048
:100780000E94EF02892B99F088E394E00E9407030E
:10079000F60181936F018F3F51F0082E000C990BE9
:1007A0000E946D0183E090E00E942C03E7CF8CE56E
:1007B00091E00E94590388E791E00E945903FE01ED
:1007C000EF5DFD4FD801CF0180966F0111921D9210
:1007D0008E179F07D9F788E891E00E9459038FE9A7
:1007E00091E00E94590380E090E020E030E040E09A
:1007F00050E0F70161917F016C3211F44F5F5F4F60
:100800004330510539F4F601E20FF31F60832F5F87
:100810003F4F08C04430510529F4F801E80FF91F93
:10082000608301960E151F0521F7223031050CF467
:1008300045C002970CF442C062EB71E08BE993E093
:100840000E944403C6010E94590368EB71E08BE9E2
:1008500093E00E944403C8010E9459038EEB91E08B
:100860000E945903B80189ED91E00E9474097C014E
:100870008FED91E00E945903B80188EE91E00E944B
:1008800074098EEE91E00E945903B70187EF91E061
:100890000E9474098C018BE392E00E94590368EE78
:1008A00071E0C8010E9474097C0184E492E00E9416
:1008B0005903C7010E945903870102C007E211E0F2
:1008C00067E271E0C8010E947F09892B71F48DE411
:1008D00092E00E94590304E110E082E090E00E945F
:1008E0002C0301501109C9F7BAC0C8010E9459036D
:1008F00066E872E088E394E00E94440382E090E0BE
:100900000E942C0388E394E00E94EF02892B61F09F
:1009100088E394E00E940703082E000C990B0E94C4
:100920006D0183E090E0ECCF6BE972E088E394E046
:100930000E94440382E090E00E942C0388E394E04C
:100940000E94EF02892B61F088E394E00E94070384
:10095000082E000C990B0E946D0183E090E0ECCF13
:1009600069EA72E088E394E00E94440382E090E048
:100970000E942C0388E394E00E94EF02892B61F02F
:1009800088E394E00E940703082E000C990B0E9454
:100990006D0183E090E0ECCFB80188E394E00E9421
:1009A000440382E090E00E942C0362E073E088E35D
:1009B00094E00E94440382E090E00E942C0388E3CC
:1009C00094E00E94EF02892B61F088E394E00E949A
:1009D0000703082E000C990B0E946D0183E090E044
:1009E000ECCF6AEB72E088E394E00E94440382E07B
:1009F00090E00E942C0388E394E00E94EF02892B90
:100A000061F088E394E00E940703082E000C990B24
:100A10000E946D0183E090E0ECCF6BEC72E088E324
:100A200094E00E94440382E090E00E942C0388E35B
:100A300094E00E94EF02892B61F088E394E00E9429
:100A40000703082E000C990B0E946D0183E090E0D3
:100A5000ECCF68E873E180E090E00E944C02C05C5B
:100A6000DD4F0FB6F894DEBF0FBECDBFDF91CF9143
:100A70001F910F91FF90EF90DF90CF9008951F92FC
:100A80000F920FB60F9211242F933F934F935F93C2
:100A90006F937F938F939F93AF93BF93EF93FF9346
:100AA0008BE993E00E94FE00FF91EF91BF91AF911F
:100AB0009F918F917F916F915F914F913F912F9176
:100AC0000F900FBE0F901F9018951F920F920FB6A8
:100AD0000F9211242F938F939F93EF93FF93E091A5
:100AE000AB03F091AC038081E091B103F091B203CC
:100AF00082FD12C090818091B4038F5F8F7320912B
:100B0000B503821751F0E091B403F0E0E556FC4FD5
:100B1000958F8093B40301C08081FF91EF919F91E5
:100B20008F912F910F900FBE0F901F9018951F92CD
:100B30000F920FB60F9211242F933F938F939F9391
:100B4000AF93BF9380918F0390919003A0919103F5
:100B5000B091920330918E0323E0230F2D3720F4C0
:100B60000196A11DB11D05C026E8230F0296A11D07
:100B7000B11D20938E0380938F0390939003A093D5
:100B80009103B09392038091930390919403A09169
:100B90009503B09196030196A11DB11D8093930317
:100BA00090939403A0939503B0939603BF91AF9154
:100BB0009F918F913F912F910F900FBE0F901F909B
:100BC00018951F920F920FB60F9211242F933F93F7
:100BD0004F935F936F937F938F939F93AF93BF9345
:100BE000EF93FF93E0919903F0919A03309709F402
:100BF00051C0968DA685B785858591FF04C09C91CF
:100C0000892329F447C09C91892309F043C0A38913
:100C1000B4899C918589809589238C93868997894D
:100C20000197F1F7608D718DA685B785558538E000
:100C300020E0CB010197F1F7822F90E09595879501
:100C4000282F4C91452309F02068315091F7868D6B
:100C500081FD20958091980390E001968F739927EC
:100C600030919703381749F0A0919803B0E0A25B48
:100C7000BC4F2C938093980303C0868D8160868F30
:100C8000828D938D0197F1F7A389B4899C91858911
:100C9000892B8C93FF91EF91BF91AF919F918F9191
:100CA0007F916F915F914F913F912F910F900FBE68
:100CB0000F901F90189510929E0310929D0388EE3E
:100CC00093E0A0E0B0E080939F039093A003A093F3
:100CD000A103B093A20324E031E030939C0320935E
:100CE0009B0325EC30E03093A8032093A70324EC6A
:100CF00030E03093AA032093A90320EC30E0309336
:100D0000AC032093AB0321EC30E03093AE0320938F
:100D1000AD0322EC30E03093B0032093AF0326EC18
:100D200030E03093B2032093B1031092B4031092D9
:100D3000B5031092B6031092B70310923B041092C1
:100D40003A0480933C0490933D04A0933E04B093F6
:100D50003F0486E191E09093390480933804109227
:100D60004F0410924E0410925104109250041092AD
:100D7000530410925204109255041092540460913E
:100D800056046E7F6D7F609356046695617081E0B6
:100D900068278AE00E949E0161E08AE00E94EB01E0
:100DA000E8EBF0E0E491E0934804E4EAF0E0E49159
:100DB000F0E0EE0FFF1FE057FF4F85919491909365
:100DC0004A048093490460E08BE00E94EB0180912B
:100DD000560481FD04C061E08BE00E949E018BE01F
:100DE00080934404E9EBF0E0E491E0934504E5EA04
:100DF000F0E0E491F0E0EE0FFF1FEA57FF4F85911E
:100E0000949190934704809346040895789484B510
:100E1000826084BD84B5816084BD85B5826085BDF6
:100E200085B5816085BD80916E00816080936E0084
:100E30001092810080918100826080938100809176
:100E40008100816080938100809180008160809327
:100E500080008091B10084608093B1008091B000E7
:100E600081608093B00080917A00846080937A00E2
:100E700080917A00826080937A0080917A0081600C
:100E800080937A0080917A00806880937A00109233
:100E9000C10061E082E00E94EB0161E083E00E941A
:100EA000EB0161E084E00E94EB0160E177E280E029
:100EB00090E00E944C0261E084E00E949E0168EE96
:100EC00073E080E090E00E944C02E091AB03F0916F
:100ED000AC0382E08083E091A703F091A803108225
:100EE000E091A903F091AA038FEC80831092B303E1
:100EF000E091AF03F091B00386E08083E091AD0311
:100F0000F091AE03808180618083E091AD03F09128
:100F1000AE03808188608083E091AD03F091AE03E1
:100F2000808180688083E091AD03F091AE03808181
:100F30008F7D808383E090E00E942C031092530405
:100F400010925204109251041092500410924F04C7
:100F500010924E048DE991E09093550480935404CF
:100F600090914404963108F058C02DEB30E0309356
:100F70004F0420934E042BE931E030935104209329
:100F800050042CE231E030935304209352044091FA
:100F90006800983058F031E09E3008F430E021E0ED
:100FA000822F01C0880F3A95EAF701C084E0842BB4
:100FB00080936800983038F09E3040F0963148F0C9
:100FC00020E030E008C02DE630E005C02BE630E040
:100FD00002C02CE630E030934C0420934B04983050
:100FE00030F481E001C0880F9A95EAF70EC0292FEE
:100FF00030E09E3018F42850310902C02E503109DB
:1010000081E001C0880F2A95EAF780934D04809112
:101010005404909155040197F1F7809152049091F6
:101020005304892B49F1E0919903F0919A0384E0EC
:10103000E833F80709F1309739F0A389B4899C9116
:101040008589809589238C93809156048E7F809327
:101050005604109298031092970388E394E09093BB
:101060009A0380939903E0914B04F0914C04908192
:1010700080914D04892B808382E090E00E942C03B4
:1010800068EE73E080E090E00E944C0268ED72E050
:1010900088E394E00E94440384E090E00E942C03E3
:1010A00061E084E00E949E0164EF71E080E090E0E6
:1010B0000E944C0266EE72E088E394E00E944403D2
:1010C00084E090E00E942C0388E394E00E94EF0209
:1010D000892B61F088E394E00E940703082E000C3E
:1010E000990B0E946D0183E090E0ECCF64EF71E01A
:1010F00080E090E00E944C0265E073E088E394E0B9
:101100000E94440384E090E00E942C0388E394E072
:101110000E94EF02892B61F088E394E00E940703AC
:10112000082E000C990B0E946D0183E090E0ECCF3B
:1011300064EF71E080E090E00E944C0265E273E0B1
:1011400088E394E00E94440384E090E00E942C0332
:1011500088E394E00E94EF02892B61F088E394E039
:101160000E940703082E000C990B0E946D0183E07A
:1011700090E0ECCF64EF71E080E090E00E944C02E0
:1011800063E373E088E394E00E94440384E090E02A
:101190000E942C0388E394E00E94EF02892B61F007
:1011A00088E394E00E940703082E000C990B0E942C
:1011B0006D0183E090E0ECCF64EF71E080E090E0BF
:1011C0000E944C0261E473E088E394E00E944403CF
:1011D00084E090E00E942C0388E394E00E94EF02F8
:1011E000892B61F088E394E00E940703082E000C2D
:1011F000990B0E946D0183E090E0ECCFCAE0D0E053
:1012000082E090E00E942C0364E670E080E090E0D1
:101210000E944C0283E090E00E942C0364E670E0A0
:1012200080E090E00E944C0284E090E00E942C0359
:1012300064E670E080E090E00E944C02219701F7A4
:101240000E946C030E949401FBCF86E191E0909391
:101250003904809338048091990390919A038853BC
:10126000944071F4E0914B04F0914C049081809192
:101270004D0480958923808310929A0310929903DC
:10128000089597FB072E16F4009407D077FD09D038
:101290000E94550907FC05D03EF4909581959F4F1B
:1012A0000895709561957F4F0895AA1BBB1B51E16E
:1012B00007C0AA1FBB1FA617B70710F0A61BB70BC6
:1012C000881F991F5A95A9F780959095BC01CD016B
:1012D0000895EE0FFF1F0590F491E02D099481E031
:1012E00090E0F8940C948809FB01DC010D9000203B
:1012F000E9F7119701900D920020E1F70895FB01A5
:10130000DC018D91019080190110D9F3990B08959A
:1013100010E0C2E6D0E004C0FE010E9469092196F7
:0A132000C336D107C9F7F894FFCFD8
:10132A000000000020018D00B7007201E800C6002D
:10133A00DA00000000009F028D0029039E02EF02DE
:10134A00070386020D0A004552524F5200496E2089
:10135A006C6F6F700041626F757420746F20696ED4
:10136A00697469616C697A652067707320696E00B7
:10137A0061742B63676E73696E660A0041626F75EA
:10138A007420746F20656E74657220666F726D20AA
:10139A007265717565737400496E20666F726D208F
:1013AA0072657175657374005A65726F6564206F32
:1013BA007574206C617420616E64206C6F6E0061BC
:1013CA00626F757420746F2073706C697420435354
:1013DA0056004C61743A20004C6F6E3A200041620C
:1013EA006F757420746F20646F20636F6E6361740D
:1013FA00656E6174696F6E7300266C6F6E3D004393
:10140A006F6E636174203100266C61743D00436F16
:10141A006E63617420320068747470733A2F2F6C93
:10142A0061726176656C2E78646D746B2E6F72676B
:10143A002F6770732F73696D2D6770732E706870C4
:10144A003F6B65793D6339336D316E62733846534C
:10145A00536D7839333241736B6C00436F6E63613D
:10146A0074203300436F6E636174203400436F75D8
:10147A006C646E2774206765742047505320636F2D
:10148A006F7264696E617465732C2070726F626129
:10149A00626C79206E6F74207761726D6564207555
:1014AA0070207965740061742B687474707061724D
:1014BA00613D22434944222C310A0061742B68742D
:1014CA00747073736C3D310A006874747070617261
:1014DA00613D2255524C222C220061742B6874748F
:1014EA0070616374696F6E3D310A0061742B6874B0
:1014FA007470726561640A0061742B63676E73703D
:10150A0077723D310A0061742B73617062723D33E8
:10151A002C312C22434F4E54595045222C224750ED
:10152A005253220A0061742B73617062723D332C2C
:10153A00312C2241504E222C2277686F6C657361E0
:10154A006C65220A0061742B73617062723D312CE2
:10155A00310A0061742B73617062723D322C310A58
:0E156A000061742B68747470696E69740A00F5
:00000001FF
