:100000000C9463000C948B000C948B000C94B3053F
:100010000C94B3050C94B3050C948B000C948B00DA
:100020000C948B000C948B000C948B000C948B0024
:100030000C948B000C948B000C948B000C948B0014
:100040000C9469050C948B000C9437050C941105E5
:100050000C948B000C948B000C948B000C948B00F4
:100060000C948B000C948B000000000024002700EF
:100070002A0000000008000201000003040700003D
:1000800000000000000000000000230026002900FE
:1000900000000000250028002B00040404040404D0
:1000A0000404020202020202030303030303010227
:1000B00004081020408001020408102001020408F6
:1000C00010202D06B90811241FBECFEFD8E0DEBFE7
:1000D000CDBF23E0A8E6B2E001C01D92AB37B20766
:1000E000E1F712E0A0E0B1E0E8EAF6E102C0059035
:1000F0000D92A836B107D9F710E0C2E6D0E004C0EF
:100100002197FE010E944509C136D107C9F70E9417
:10011000E8060C94470B0C940000CF92DF92EF920C
:10012000FF920F931F93CF93DF936C017A018B01A2
:10013000C0E0D0E0CE15DF0581F0D8016D918D01D2
:10014000D601ED91FC910190F081E02DC601099559
:10015000892B11F02196EECF7E01C701DF91CF915F
:100160001F910F91FF90EF90DF90CF900895FC01C9
:10017000538D448D252F30E0842F90E0821B930B0C
:10018000541710F0CF96089501970895FC01918DB2
:10019000828D981761F0828DDF01A80FB11D5D96E9
:1001A0008C91928D9F5F9F73928F90E008958FEF57
:1001B0009FEF0895FC01918D828D981731F0828D0B
:1001C000E80FF11D858D90E008958FEF9FEF089562
:1001D000FC01918D228D892F90E0805C9F4F821BC6
:1001E00091098F739927089585EB92E00E94E800AA
:1001F00021E0892B09F420E0822F0895FC01848DF1
:10020000DF01A80FB11DA35ABF4F2C91848D90E040
:1002100001968F739927848FA689B7892C93A0891B
:10022000B1898C91837080648C93938D848D9813A5
:1002300006C00288F389E02D80818F7D8083089538
:10024000EF92FF920F931F93CF93DF93EC0181E026
:10025000888F9B8D8C8D981305C0E889F9898081E2
:1002600085FD26C0F62E0B8D10E00F5F1F4F0F731C
:100270001127E02E8C8DE8120CC00FB607FCFACFC8
:10028000E889F989808185FFF5CFCE010E94FE00C3
:10029000F1CF8B8DFE01E80FF11DE35AFF4FF08285
:1002A0009FB7F8940B8FEA89FB89808180620AC02E
:1002B0009FB7F894EE89FF896083E889F989808186
:1002C0008370806480839FBF81E090E0DF91CF9155
:1002D0001F910F91FF90EF900895CF93DF93EC0162
:1002E000888D8823C9F0EA89FB89808185FD05C056
:1002F000A889B9898C9186FD0FC00FB607FCF5CF90
:10030000808185FFF2CFA889B9898C9185FFEDCFD7
:10031000CE010E94FE00E7CFDF91CF91089580E0EB
:1003200090E0892B29F00E94F40081110C940000C8
:10033000089590E0FC01EE58FF4F2491FC01E25536
:10034000FF4F3491FC01E656FF4FE491EE2309F490
:100350003CC0222339F1233091F038F42130A9F048
:10036000223001F584B58F7D12C0273091F02830FE
:10037000A1F02430B9F4809180008F7D03C080917A
:1003800080008F77809380000DC084B58F7784BD07
:1003900009C08091B0008F7703C08091B0008F7D3D
:1003A0008093B000F0E0EE0FFF1FE057FF4FA591E4
:1003B000B4919FB7F894611104C08C9130953823A3
:1003C00002C0EC913E2B3C939FBF0895CF93DF93E7
:1003D00090E0FC01E255FF4F2491FC01E656FF4FEF
:1003E0008491882361F190E0880F991FFC01E859FE
:1003F000FF4FC591D491FC01E057FF4FA591B491F7
:10040000611109C09FB7F894888120958223888361
:10041000EC912E230BC0623061F49FB7F894888171
:10042000322F309583238883EC912E2B2C939FBF02
:1004300006C08FB7F894E8812E2B28838FBFDF91F9
:10044000CF9108953FB7F8948091AD029091AE029C
:10045000A091AF02B091B00226B5A89B05C02F3F76
:1004600019F00196A11DB11D3FBFBA2FA92F982FDA
:100470008827820F911DA11DB11DBC01CD0142E055
:10048000660F771F881F991F4A95D1F708958F929D
:100490009F92AF92BF92CF92DF92EF92FF926B0149
:1004A0007C010E9422024B015C01C114D104E104D1
:1004B000F104F1F00E942202DC01CB0188199909B4
:1004C000AA09BB09883E9340A105B10570F321E05C
:1004D000C21AD108E108F10888EE880E83E0981E60
:1004E000A11CB11CC114D104E104F10419F7DDCF42
:1004F000FF90EF90DF90CF90BF90AF909F908F9044
:1005000008952091B3023091B4022817390771F48D
:100510009091B1028091B202981741F0E091B1023E
:10052000F0E0E859FD4F808190E008958FEF9FEF54
:10053000089508951F93CF93DF93DC015C968D910E
:100540009C915D97009739F421E030E013963C933D
:100550002E9312973BC05196ED91FC915297509675
:100560002C915097322F30951FB75E964C915E9725
:10057000742F727041FD6095F8944081772311F0DB
:10058000422B01C043234083EC012197F1F748E05F
:10059000508160FF02C0522B01C053235083EC01F5
:1005A0002197F1F76695415099F78081772319F0EB
:1005B0008323808302C0282B20831FBF5C968D91EC
:1005C0009C915D970197F1F781E090E0DF91CF91E9
:1005D0001F9108952091B3023091B4022817390772
:1005E00071F48091B2022091B10290E0805C9F4F43
:1005F000821B910960E470E00E941D09089580E06B
:1006000090E008952091B3023091B4022817390781
:10061000B9F49091B1028091B202981789F0E091FB
:10062000B102F0E0E859FD4F80812091B10230E045
:100630002F5F3F4F2F7333272093B10290E008952F
:100640008FEF9FEF0895089580E090E00895CF9395
:10065000C82F61E00E94990169E170E080E090E0BC
:100660000E94470260E08C2F0E94990169E170E0CE
:1006700080E090E0CF910C94470282E593E00E94E5
:10068000EA02892B71F082E593E00E940203682F51
:1006900085EB92E00E94200183E090E00E94270316
:1006A000ECCF6CED75E080E090E00C9447026115B2
:1006B000710579F0FB0101900020E9F73197AF0156
:1006C000461B570BDC01ED91FC910280F381E02D7C
:1006D000099480E090E008950E94320B0F931F93DD
:1006E000CF93DF93EC0188819981009729F02A81CB
:1006F0003B812617370788F48B016F5F7F4F0E947D
:100700006C0A009761F0998388831B830A832C818C
:100710003D81232B11F4FC01108281E001C080E0B7
:10072000DF91CF911F910F9108950F931F93CF9356
:10073000DF93EC0164EF71E080E090E00E944702FB
:1007400082E090E00E9427030C811D810F5F1F4F04
:10075000B801CE010E946E03882361F0288139819F
:100760008C819D8161EB71E0820F931F0E94400B91
:100770001D830C836881798182E593E00E94570391
:1007800064EF71E080E090E00E944702DF91CF913A
:100790001F910F910C943D03EF92FF920F931F93C3
:1007A000CF93DF93EC01198218821B821A821D827B
:1007B0001C826115710549F18B01FB01019000203C
:1007C000E9F731977F01E61AF70AB7010E946E0335
:1007D0002881398181110DC02115310519F0C90118
:1007E0000E94E309198218821D821C821B821A82D0
:1007F0000CC0FD82EC82B801C901DF91CF911F913D
:100800000F91FF90EF900C94400BDF91CF911F91CF
:100810000F91FF90EF9008958F929F92AF92BF92A9
:10082000CF92DF92EF92FF920F931F93CF93DF93BC
:10083000CDB7DEB7D4500FB6F894DEBF0FBECDBF34
:10084000CE0101967C015E019FEFA91A9BEFB90AC8
:10085000F7011192EA15FB05E1F76AE271E0C701C1
:100860000E94400B64E771E082E593E00E94570329
:100870006CED75E080E090E00E9447020E943D032D
:1008800061E871E082E593E00E9457036CED75E04A
:1008900080E090E00E94470282E593E00E94EA0235
:1008A000892B09F43FC0F70101900020E9F78F017F
:1008B0000E191F090250110982E593E00E94EA0215
:1008C000892B01F182E593E00E9402036C01EAE0CA
:1008D0008E1791F399270E94DA08892B69F748014E
:1008E000FFEF8F1A9F0AF701E00FF11FC08283E02C
:1008F00090E00E9427036C2D85EB92E00E9420017E
:100900008401DACFF701E00FF11F82E28083FE015C
:10091000E00FF11F8AE0828361EB71E085EB92E0EA
:100920000E9457036DE871E082E593E00E9457034F
:100930006CED75E080E090E00E9447020E943D036C
:10094000F70161917F016A3009F062C061EB71E0EB
:1009500082E593E00E94570364E971E180E090E052
:100960000E9447020E943D0360E777E180E090E04B
:100970000E94470262EA71E082E593E00E94570319
:100980006CED75E080E090E00E9447020E943D031C
:1009900068EB7BE080E090E00E94470263EB71E04F
:1009A00082E593E00E94570364E971E180E090E002
:1009B0000E9447020E943D0368EB7BE080E090E0EC
:1009C0000E94470260EC71E082E593E00E945703C9
:1009D0006CED75E080E090E00E9447020E943D03CC
:1009E00068E873E180E090E0DC5F0FB6F894DEBF6A
:1009F0000FBECDBFDF91CF911F910F91FF90EF9070
:100A0000DF90CF90BF90AF909F908F900C94470253
:100A100082E593E00E949A02EA14FB0409F090CF69
:100A200095CF1F920F920FB60F9211242F933F93E1
:100A30004F935F936F937F938F939F93AF93BF93E6
:100A4000EF93FF9385EB92E00E94FE00FF91EF9100
:100A5000BF91AF919F918F917F916F915F914F91D6
:100A60003F912F910F900FBE0F901F9018951F92DE
:100A70000F920FB60F9211242F938F939F93EF93A2
:100A8000FF93E091C502F091C6028081E091CB0214
:100A9000F091CC0282FD12C090818091CE028F5FD6
:100AA0008F732091CF02821751F0E091CE02F0E0D7
:100AB000EB54FD4F958F8093CE0201C08081FF9152
:100AC000EF919F918F912F910F900FBE0F901F90DC
:100AD00018951F920F920FB60F9211242F933F93E8
:100AE0008F939F93AF93BF938091A9029091AA0295
:100AF000A091AB02B091AC023091A80223E0230F89
:100B00002D3720F40196A11DB11D05C026E8230F45
:100B10000296A11DB11D2093A8028093A902909373
:100B2000AA02A093AB02B093AC028091AD02909167
:100B3000AE02A091AF02B091B0020196A11DB11D0D
:100B40008093AD029093AE02A093AF02B093B00237
:100B5000BF91AF919F918F913F912F910F900FBEB9
:100B60000F901F9018951F920F920FB60F9211249D
:100B70002F933F934F935F936F937F938F939F93A5
:100B8000AF93BF93EF93FF93E091B302F091B40260
:100B9000309709F451C0968DA685B785858591FF5C
:100BA00004C09C91892329F447C09C91892309F0B2
:100BB00043C0A389B4899C918589809589238C93AE
:100BC000868997890197F1F7608D718DA685B78524
:100BD000558538E020E0CB010197F1F7822F90E0B6
:100BE00095958795282F4C91452309F02068315021
:100BF00091F7868D81FD20958091B20290E001965B
:100C00008F7399273091B102381749F0A091B20241
:100C1000B0E0A859BD4F2C938093B20203C0868DDB
:100C20008160868F828D938D0197F1F7A389B489B6
:100C30009C918589892B8C93FF91EF91BF91AF9106
:100C40009F918F917F916F915F914F913F912F91E4
:100C50000F900FBE0F901F901895CF92DF92EF92DA
:100C6000FF921092B8021092B70298EEC92E93E04C
:100C7000D92EE12CF12CC092B902D092BA02E092A6
:100C8000BB02F092BC028AE091E09093B60280939E
:100C9000B50285EC90E09093C2028093C10284EC8F
:100CA00090E09093C4028093C30280EC90E0909314
:100CB000C6028093C50281EC90E09093C8028093B5
:100CC000C70282EC90E09093CA028093C90286EC3E
:100CD00090E09093CC028093CB021092CE021092BF
:100CE000CF021092D0021092D1026DEC71E081E738
:100CF00093E00E94CC031092550310925403C092CB
:100D00005603D0925703E0925803F09259038CE1B6
:100D100091E09093530380935203109269031092D1
:100D2000680310926B0310926A0310926D03109285
:100D30006C0310926F0310926E03609170036E7FCC
:100D40006D7F609370036695617081E068278AE02B
:100D50000E94990161E08AE00E94E601E8EBF0E080
:100D6000E491E0936203E4EAF0E0E491F0E0EE0F56
:100D7000FF1FE057FF4F85919491909364038093F8
:100D8000630360E08BE00E94E6018091700381FDC7
:100D900004C061E08BE00E9499018BE080935E03C8
:100DA000E9EBF0E0E491E0935F03E5EAF0E0E49141
:100DB000F0E0EE0FFF1FEA57FF4F8591949190935B
:100DC000610380936003FF90EF90DF90CF900895D0
:100DD000CF93DF9300D000D000D0CDB7DEB77894AA
:100DE00084B5826084BD84B5816084BD85B5826030
:100DF00085BD85B5816085BD80916E0081608093E1
:100E00006E00109281008091810082608093810049
:100E10008091810081608093810080918000816059
:100E2000809380008091B10084608093B1008091B4
:100E3000B00081608093B00080917A0084608093DC
:100E40007A0080917A00826080937A0080917A00A3
:100E5000816080937A0080917A00806880937A0024
:100E60001092C10061E089E00E94E601E091C502B4
:100E7000F091C60282E08083E091C102F091C2024B
:100E80001082E091C302F091C4028FEC8083109233
:100E9000CD02E091C902F091CA0286E08083E09120
:100EA000C702F091C802808180618083E091C7020F
:100EB000F091C802808188608083E091C702F09140
:100EC000C802808180688083E091C702F091C802E7
:100ED00080818F7D808310926D0310926C0310923D
:100EE0006B0310926A0310926903109268038DE9F4
:100EF00091E090936F0380936E0390915E0396311F
:100F000008F058C02DEB30E030936903209368035C
:100F10002BE931E030936B0320936A032CE231E03C
:100F200030936D0320936C0340916800983058F023
:100F300031E09E3008F430E021E0822F01C0880FBC
:100F40003A95EAF701C084E0842B809368009830DA
:100F500038F09E3040F0963148F020E030E008C094
:100F60002DE630E005C02BE630E002C02CE630E094
:100F70003093660320936503983030F481E001C01C
:100F8000880F9A95EAF70EC0292F30E09E3018F4AA
:100F90002850310902C02E50310981E001C0880F6C
:100FA0002A95EAF78093670380916E0390916F030F
:100FB0000197F1F780916C0390916D03892B49F1B2
:100FC000E091B302F091B40283E0E235F80709F151
:100FD000309739F0A389B4899C91858980958923BC
:100FE0008C93809170038E7F809370031092B20275
:100FF0001092B10282E593E09093B4028093B30221
:10100000E0916503F0916603908180916703892BDD
:10101000808361E082E00E94E60161E083E00E945B
:10102000E60161E084E00E94E6016CED75E080E09D
:1010300090E00E94470261E089E00E94990160EA25
:101040007FE080E090E00E9447026CED75E080E078
:1010500090E00E94470261E082E00E94990160E412
:101060007FE180E090E00E94470260E082E00E9421
:10107000990161E083E00E94990160E47FE180E0F2
:1010800090E00E94470283E090E00E94270361E025
:1010900084E00E94990163E072E0CE0101960E9413
:1010A000CC03CE0101960E94950389819A810E940A
:1010B000E30960E172E0CE0101960E94CC03CE010B
:1010C00001960E94950389819A810E94E3096EE24C
:1010D00072E0CE0101960E94CC03CE0101960E94DF
:1010E000950389819A810E94E3096DE472E0CE0143
:1010F00001960E94CC03CE0101960E94950389813E
:101100009A810E94E3096AE572E0CE0101960E948D
:10111000CC03CE0101960E94950389819A810E9499
:10112000E3090AE010E082E090E00E94270364E611
:1011300070E080E090E00E94470283E090E00E942F
:10114000270364E670E080E090E00E94470284E0BC
:1011500090E00E94270364E670E080E090E00E9447
:10116000470201501109F9F60E940C040E948F01F8
:10117000FBCF8CE191E090935303809352038091D5
:10118000B3029091B4028255934071F4E0916503EB
:10119000F091660390818091670380958923808315
:1011A0001092B4021092B302809171039091720375
:1011B0000C94E30991110C94E308803219F08950E2
:1011C0008550C8F708959927882708952F923F9250
:1011D0004F925F926F927F928F929F92AF92BF9247
:1011E000CF92DF92EF92FF920F931F93CF93DF93F3
:1011F000CDB7DEB7CA1BDB0B0FB6F894DEBF0FBE50
:10120000CDBF09942A88398848885F846E847D849C
:101210008C849B84AA84B984C884DF80EE80FD809E
:101220000C811B81AA81B981CE0FD11D0FB6F89414
:10123000DEBF0FBECDBFED01089597FB072E16F45C
:10124000009407D077FD09D00E94310907FC05D032
:101250003EF4909581959F4F0895709561957F4FCD
:101260000895AA1BBB1B51E107C0AA1FBB1FA617ED
:10127000B70710F0A61BB70B881F991F5A95A9F73F
:1012800080959095BC01CD010895EE0FFF1F05904C
:10129000F491E02D09940F931F93CF93DF93823045
:1012A000910510F482E090E0E0917903F0917A03E7
:1012B00020E030E0A0E0B0E0309719F140815181AA
:1012C0000281138148175907C8F08417950769F4FC
:1012D000109731F012960C93129713961C9327C017
:1012E0000093790310937A0322C02115310519F078
:1012F0004217530718F49A01BD01EF01DF01F8010D
:10130000DBCF21153105F9F0281B390B24303105CD
:1013100080F48A819B816115710521F0FB01938323
:10132000828304C090937A0380937903FE013296FE
:1013300044C0FE01E20FF31F8193919322503109C3
:10134000398328833AC02091770330917803232B87
:1013500041F42091020130910301309378032093EE
:10136000770320910001309101012115310541F4ED
:101370002DB73EB74091040150910501241B350B58
:10138000E0917703F0917803E217F307A0F42E1BA6
:101390003F0B2817390778F0AC014E5F5F4F2417D9
:1013A000350748F04E0F5F1F509378034093770343
:1013B0008193919302C0E0E0F0E0CF01DF91CF9103
:1013C0001F910F910895CF93DF93009709F481C087
:1013D000FC01329713821282A0917903B0917A03B3
:1013E000109781F420813181820F931F2091770320
:1013F000309178032817390751F5F0937803E0937B
:10140000770367C0ED0120E030E0CE17DF0740F43E
:101410004A815B819E0141155105F1F0EA01F5CF4A
:10142000D383C28340815181840F951FC817D90788
:1014300059F488819981840F951F02969183808346
:101440008A819B81938382832115310529F4F0934E
:101450007A03E09379033DC0E901FB83EA83499174
:101460005991C40FD51FEC17FD0761F4808191815C
:10147000840F951F0296E901998388838281938165
:101480009B838A83E0E0F0E012968D919C91139704
:10149000009719F0FD01DC01F7CF8D919C91119718
:1014A0009D012E5F3F4F820F931F20917703309154
:1014B00078032817390769F4309729F410927A03D2
:1014C0001092790302C013821282B0937803A09322
:1014D0007703DF91CF910895A0E0B0E0E2E7FAE072
:1014E0000C94EA08EC01009721F4CB010E944B090F
:1014F000B4C0FC01E60FF71F9C0122503109E2172E
:10150000F30708F4A8C0D9010D911C911197061793
:101510001707B0F00530110508F49BC0C801049707
:101520008617970708F495C002501109061B170B80
:10153000019311936D937C93CF010E94E30989C0BD
:101540005B01A01AB10A4C01800E911EA091790393
:10155000B0917A03612C712CE12CF12C109709F4D5
:1015600046C08D919C911197A815B905B1F56C01F4
:1015700042E0C40ED11CCA14DB0478F14C018A1875
:101580009B08640142E0C40ED11C1296BC901297D5
:101590001396AC91B5E0CB16D10440F0B282A38390
:1015A00091828082D9016D937C9309C00E5F1F4F99
:1015B000800F911FF90191838083EB2DFA2FE114A5
:1015C000F10431F0D7011396FC93EE93129741C0CA
:1015D000F0937A03E09379033CC06816790608F427
:1015E0003C017D0112960D90BC91A02DB7CF80914A
:1015F00077039091780388169906E1F466167706CA
:10160000C8F48091000190910101009741F48DB7D9
:101610009EB74091040150910501841B950BE8177A
:10162000F907C8F4F0937803E0937703F901718325
:1016300060830FC0CB010E944B097C01009759F0D9
:10164000A801BE010E94370BCE010E94E309C70129
:1016500004C0CE0102C080E090E0CDB7DEB7EEE07E
:101660000C94060981E090E0F8940C94470BFB0180
:10167000DC0102C001900D9241505040D8F708950E
:10168000FB01DC0101900D920020E1F7089510E0CC
:10169000C2E6D0E004C0FE010E9445092196C3368F
:0816A000D107C9F7F894FFCF50
:1016A80000007B0380000000000020018D00B700CF
:1016B8006D01E800C600DA00000000009A028D0003
:1016C80024039902EA020203810261742B6874748C
:1016D80070706172613D2255524C222C22687474DC
:1016E800703A2F2F6170692E78646D746B2E6F724B
:1016F800672F3F6B65793D6339336D316E6273389F
:101708004653536D7839333241736B6C2664617478
:10171800613D220061742B68747470696E69740A83
:101728000061742B63676E73696E660A0061742BBF
:1017380068747470706172613D22434944222C318F
:101748000A0061742B68747470616374696F6E3D0C
:10175800300A0061742B68747470726561640A00E1
:1017680061742B687474707465726D0A006874749F
:10177800703A2F2F6170692E78646D746B2E6F72BA
:10178800672F3F6B65793D6339336D316E6273380E
:101798004653536D7839333241736B6C26646174E8
:1017A800613D0061742B63676E737077723D310021
:1017B80061742B73617062723D332C312C22434F5C
:1017C8004E54595045222C224750525322006174DE
:1017D8002B73617062723D332C312C2241504E22A2
:1017E8002C2277686F6C6573616C65220061742BBD
:1017F80073617062723D312C310061742B736170BA
:0818080062723D322C31000038
:00000001FF
